:100000000C947A000C94A2000C94A2000C94A20010
:100010000C94A2000C94A2000C94A2000C94AF0AC1
:100020000C94A2000C94FD0B0C94A2000C94A20062
:100030000C94A2000C94D60B0C94A2000C94A20079
:100040000C94650A0C94A2000C944B090C9425099D
:100050000C94A2000C94A2000C94A2000C94A20098
:100060000C94A2000C94A200084AD73B3BCE016E30
:1000700084BCBFFDC12F3D6C74319ABD56833DDAFF
:100080003D00C77F11BED9E4BB4C3E916BAAAABE0E
:10009000000000803F00000000002300260029002F
:1000A00000000000240027002A00000000002500B6
:1000B00028002B00040404040404040402020202C5
:1000C000020203030303030301020408102040801B
:1000D000010204081020010204081020000000089A
:1000E00000020100000304070000000000000000FF
:1000F0009D198A1911241FBECFEFD8E0DEBFCDBFF6
:1001000024E0A2EBB1E001C01D92A63CB207E1F7EA
:1001100011E0A0E0B1E0E6E0FFE302C005900D923F
:10012000A23BB107D9F710E0C9E7D0E004C021979E
:10013000FE010E943E1EC837D107C9F70E94E3178F
:100140000C94761F0C9400002F923F924F925F9276
:100150006F927F928F929F92AF92BF92CF92DF92D7
:10016000EF92FF920F931F93CF93DF9300D000D0B5
:1001700000D0CDB7DEB785EE93E090932402809354
:1001800023028091E20390E090932602809325025F
:100190008091AF0490E09093280280932702809191
:1001A000DE03853009F07BC38091E7039091E8037B
:1001B000885891098D35910588F48091E203843047
:1001C00041F48091E9039091EA038097479708F4FE
:1001D00001C28091E203843408F0E3C18091E2031C
:1001E0008A3108F454C08091E5039091E603843F7E
:1001F000914080F410922202109221028FEF9FEF23
:10020000DC0180931D0290931E02A0931F02B09305
:1002100020025BC08091E7039091E80385974B979C
:10022000B0F5EBEEF3E082E090E040E050E0BA01A0
:100230008C010F5F1F4F2091E20330E0021713077C
:100240006CF49F0122503109D9012D913C91275026
:1002500031092730310508F4F5C1C801019795959A
:10026000879590932202809321020C972CF4109290
:100270002202109221020BC040931D0250931E02D5
:1002800060931F027093200284E090E0FCC2809192
:10029000E2038A3108F44DC08091E5039091E603B2
:1002A0008032934008F4A6CF8091E7039091E80351
:1002B000C697869708F4E2C13CC040931D02509354
:1002C0001E0260931F02709320028BE090E0DBC25D
:1002D00020813181255231092B31310508F0DEC1F1
:1002E000440F551F661F771F4160029634968C019C
:1002F0000F5F1F4F2091E20330E00217130764F4F1
:100300009F0122503109D9012D913C912C50310986
:100310002B303105E8F2C8010197959587959093A8
:100320002202809321020C9744F61092220210922E
:1003300021028091E203823208F44CC08091E703ED
:100340009091E8030697079708F044C0EBEEF3E0BE
:1003500082E090E040E050E0BA018C010F5F1F4F57
:100360002091E20330E002171307DCF4DF0112975B
:100370002D913C9111972E5131092731310508F00B
:100380009AC1440F551F661F771F4160208131813C
:100390003496235031092530310510F40296DDCF13
:1003A000C801019795958795909322028093210229
:1003B00040972CF410922202109221020BC040931D
:1003C0001D0250931E0260931F02709320028CE066
:1003D00090E059C21C821B8281E090E09A8389835D
:1003E0008091E2038D3008F46BC049E753E0BE0111
:1003F0006D5F7F4FCE0101960E946F17892B09F028
:100400005FC049E753E0BE016D5F7F4FCE010196AB
:100410000E946F17019709F053C049E753E0BE01EE
:100420006D5F7F4FCE0101960E946F17892B09F0F7
:1004300047C0C12CD12C760100E010E08091E2038E
:1004400090E029813A81281739075CF549E753E0A4
:10045000BE016D5F7F4FCE0101960E946F175C0158
:1004600049E753E0BE016D5F7F4FCE0101960E94C8
:100470006F17B1E0AB16B10449F4892B09F5CC0C28
:10048000DD1CEE1CFF1C6894C0F808C0AB28C1F44A
:100490000197B1F4CC0CDD1CEE1CFF1C0F5F1F4F4D
:1004A000CDCF1093220200932102C0921D02D09260
:1004B0001E02E0921F02F092200281E090E0E3C170
:1004C0001C821B8281E090E09A83898380912502BF
:1004D00090912602181619060CF058C0E0912302DC
:1004E000F091240282E090E09A8389838281938153
:1004F00089974E9708F04AC083E090E09A838983F9
:10050000848195810B970A9708F040C04CEB51E02D
:10051000BE016D5F7F4FCE0101960E946F17892B40
:10052000A9F54CEB51E0BE016D5F7F4FCE01019606
:100530000E946F17019751F5C12CD12C760100E074
:1005400010E029813A818091250290912602281796
:1005500039070CF0F3C04CEB51E0BE016D5F7F4FEB
:10056000CE0101960E946F174C010330110509F06E
:10057000AFC04CEB51E0BE016D5F7F4FCE010196E5
:100580000E946F178816990609F4A2C0E091230211
:10059000F091240282819381C697869708F4DDC08A
:1005A0008CC18091E9039091EA03825491098E975E
:1005B00008F014CE20E030E080E090E0DC01F901AA
:1005C000E551FC4F40815181495051094930510555
:1005D00088F004CE8091EB039091EC030997099782
:1005E00008F0F7CD10922202109221028FEF9FEFB8
:1005F000DC0158C1F901E351FC4F40815181475161
:1006000051094231510588F4880F991FAA1FBB1F59
:1006100081602C5F3F4F2038310589F620E230E0C1
:1006200030932202209321023DC1408151814650E6
:1006300051094730510508F0D1CD880F991FAA1FE5
:10064000BB1FE7CF20813181235131092F30310584
:1006500040F4440F551F661F771F41600296349681
:10066000E7CD208131812A5031092930310508F048
:100670000ECE440F551F661F771FF0CF8091E90300
:100680009091EA03C697869708F053CEEDEEF3E01B
:1006900083E090E040E050E0BA0129CE2081318132
:1006A0002C5031092A30310508F043CE440F551F34
:1006B000661F771F1ACE2D913C912C5031092B309B
:1006C000310508F087CE440F551F661F771F5ECE99
:1006D0004CEB51E0BE016D5F7F4FCE0101960E9451
:1006E0006F175C010330110569F44CEB51E0BE015A
:1006F0006D5F7F4FCE0101960E946F17A816B90655
:1007000009F044CF8114910459F4AA94AB2809F05C
:100710003DCFCC0CDD1CEE1CFF1C6894C0F80BC058
:100720008A94892809F032CFAB2809F02FCFCC0C5E
:10073000DD1CEE1CFF1C0F5F1F4F03CF1093220226
:1007400000932102C0921D02D0921E02E0921F026D
:10075000F092200282E090E096C0848195814B97D0
:10076000459708F0AAC0DF0116967F0126ECE20E3D
:10077000F11C20E030E040E050E060E070E080E01C
:1007800090E00D911C911197095011090830110545
:1007900008F093C012960D911C9113970151110905
:1007A0000D30110520F501E00E94071E216014960E
:1007B000AE15BF0531F720931D0230931E02409302
:1007C0001F025093200200E20E94221E20931B026F
:1007D00030931C0285E090E090931A0280931902F6
:1007E00080E390E0909322028093210250C0129601
:1007F0000D911C911397045011090530110508F053
:100800005CC001E00E94071ED2CF9801225031093E
:10081000D9012D913C91295031092830310508F03A
:10082000FAC0BC016F5F7F4FD8012D913C912750DA
:1008300031092730310508F0EBC2440F551F4160E4
:1008400002960C5F1F4F2091E20330E024503109E3
:1008500082179307D4F2019795958795909322027A
:10086000809321028A970CF4D6C0052E000C660BEB
:10087000770B40931D0250931E0260931F027093EA
:10088000200289E090E090931A028093190281E09F
:1008900090E00CC382E08093DE031092E20380E0DC
:1008A00090E004C380931D0290931E02A0931F0248
:1008B000B093200283E090E0E6CF8091E203893399
:1008C00070F182819381895791098335910508F4EC
:1008D00040C125C0D90112966D917C911397665144
:1008E00071096131710508F060C1D701C601880F37
:1008F000991FAA1FBB1F6C017D016894C0F84E5F51
:100900005F4F2C5F3F4F4B33510509F431C1D90183
:100910006D917C916A50710969307105D8F28091AE
:10092000E203823231F4828193810A97099708F4B5
:100930004CC1828193818957910983359105D0F407
:100940008091E2038132B0F084819581CA978997C2
:1009500088F49F012A5F3F4FC12CD12C760143E0E0
:1009600050E0D9016D917C916A507109693071052F
:1009700008F44AC1828193818C549109C59778F417
:100980008091E203843031F4848195818097479788
:1009900008F499C18091E203843408F07BC180910E
:1009A000E203863460F1828193810C970B9708F4FF
:1009B000D8C125C0D90112966D917C9113976E51C3
:1009C00071096731710508F004C2D701C601880FAB
:1009D000991FAA1FBB1F6C017D016894C0F84E5F70
:1009E0005F4F2C5F3F4F4534510509F4D5C1D90104
:1009F0006D917C916C5071096B307105D8F28091CA
:100A0000E203883540F082819381855891098B35C6
:100A1000910508F4EEC18091E2038032E1F4828115
:100A2000938106970697B8F4848195810997099771
:100A300090F49F012A5F3F4FBF01625C7F4FC12C42
:100A4000D12C7601D9014D915C9146505109463027
:100A5000510508F4EAC180912502909126029E83F7
:100A60008D8306970CF416CF8F010A5F1F4F73E03A
:100A7000272E312CE5ECCE2EEDE9DE2EECE1EE2E2C
:100A8000E1E8FE2ED8016D917C91F8013497A080A9
:100A9000B18080E090E00E94C21A2B013C01B501B8
:100AA00080E090E00E94C21A4B015C012DEC3CEC0E
:100AB0004CE45FE30E94231B9B01AC01C301B20124
:100AC0000E94BD1A87FD17C02DEC3CEC4CE45FE39F
:100AD000C301B2010E94231B9B01AC01C501B401FB
:100AE0000E94BD1AE82F880FFF0BEE27FF0FEE1FA5
:100AF000FF27319602C0E0E0F0E0A701960163E92C
:100B000071E080E091E00E94F71B6F01FF0FEE089B
:100B1000FF08C626D726E826F926BFEF2B1A3B0A80
:100B20000E5F1F4FED81FE812E163F0609F0AACF02
:100B3000C0921D02D0921E02E0921F02F09220028B
:100B400080E290E090932202809321028FEF9FEF4A
:100B50009ACE84819581CA97899708F0E0CE9F014B
:100B60002A5F3F4FC12CD12C760143E050E0CFCE1D
:100B70009F012A583F4FD9012D913C912A503109AC
:100B80002930310508F0CBCE2CE130E03093220241
:100B900020932102C0921D02D0921E02E0921F02F9
:100BA000F09220028AE090E06ECED90112966D910B
:100BB0007C911397665071096730710508F0AFCECC
:100BC000CC0CDD1CEE1CFF1C9ACE2091E203CF0161
:100BD000820F911D820F911DDC0112978D919C91C6
:100BE0000A97099708F0A5CE1092220210922102CE
:100BF0008FEF9FEFDC0180931D0290931E02A09364
:100C00001F02B09320024CC1D90112966D917C91C4
:100C10001397665171096131710588F112966D91D2
:100C20007C911397665071096730710508F0A2CE68
:100C3000CC0CDD1CEE1CFF1C4E5F5F4F2C5F3F4F4A
:100C40004332510509F08DCE9F012A5B3F4FD901F8
:100C50002D913C912A5031092930310508F08ACE76
:100C600020E130E03093220220932102C0921D0245
:100C7000D0921E02E0921F02F092200211C1D70111
:100C8000C601880F991FAA1FBB1F6C017D016894C4
:100C9000C0F8D2CF8481958189549109C39708F017
:100CA0007ECE9F012A5F3F4FBF016A577F4FC12C05
:100CB000D12C7601D9014D915C91495051094930AF
:100CC0005105B8F06CCE868197810997099708F095
:100CD00061CE10922202109221028FEF9FEFDC0171
:100CE00080931D0290931E02A0931F02B0932002D6
:100CF000DAC0D90112964D915C9113974651510972
:100D000041315105F0F4D701C601880F991FAA1F80
:100D1000BB1F6C017D016894C0F82C5F3F4F261704
:100D2000370741F620E230E030932202209321027F
:100D3000C0921D02D0921E02E0921F02F092200289
:100D4000B2C0D90112964D915C911397465051094A
:100D50004730510508F023CECC0CDD1CEE1CFF1CE7
:100D6000DCCF848195810997099708F048CE868168
:100D700097818C974F9708F042CE8085918589970F
:100D80004D9708F03CCE9F01265F3F4FC12CD12CE0
:100D9000760145E050E02BCE9F0126573F4FD90109
:100DA0002D913C912C5031092B30310508F027CE84
:100DB00020E230E03093220220932102C0921D02F3
:100DC000D0921E02E0921F02F092200288E090E092
:100DD0005ACDD90112966D917C9113976950710982
:100DE0006930710508F00BCECC0CDD1CEE1CFF1C2D
:100DF000F6CD84819581825491098E9708F00BCEAF
:100E00008F01045C1F4F8DE190E040E050E01BCD6E
:100E1000D8012D913C91285131092231310510F032
:100E2000CB0119CD440F551F0BCDD90112964D9111
:100E30005C911397495151094331510508F5D70188
:100E4000C601880F991FAA1FBB1F6C017D01689402
:100E5000C0F82C5F3F4F2617370709F0F3CD2EE07F
:100E600030E03093220220932102C0921D02D092E2
:100E70001E02E0921F02F09220028FE090E003CD6C
:100E8000D90112964D915C911397495051094930FF
:100E9000510508F0E0CDCC0CDD1CEE1CFF1CD9CFB9
:100EA00086E090E0F0CC87E090E0EDCC26960FB69F
:100EB000F894DEBF0FBECDBFDF91CF911F910F9190
:100EC000FF90EF90DF90CF90BF90AF909F908F906A
:100ED0007F906F905F904F903F902F900895CF92AA
:100EE000DF92EF92FF920F931F93CF93DF936C01EA
:100EF0007A018B01C0E0D0E0CE15DF0589F0D80182
:100F00006D918D01D601ED91FC910190F081E02D64
:100F1000C6010995892B11F47E0102C02196ECCF00
:100F2000C701DF91CF911F910F91FF90EF90DF905C
:100F3000CF900895089580E090E00895FC01538DCE
:100F4000448D252F30E0842F90E0821B930B5417A3
:100F500010F0CF96089501970895FC01918D828D30
:100F6000981761F0828DDF01A80FB11D5D968C91FD
:100F7000928D9F5F9F73928F90E008958FEF9FEF08
:100F80000895FC01918D828D981731F0828DE80FC4
:100F9000F11D858D90E008958FEF9FEF0895FC017E
:100FA000918D228D892F90E0805C9F4F821B91094B
:100FB0008F739927089587E392E00E94CF0721E07D
:100FC000892B09F420E0822F0895FC01848DDF0134
:100FD000A80FB11DA35ABF4F2C91848D90E00196AC
:100FE0008F739927848FA689B7892C93A089B1899B
:100FF0008C9180648C93938D848D981306C00288A5
:10100000F389E02D80818F7D80830895EF92FF9298
:101010000F931F93CF93DF93EC0181E0888F9B8D1B
:101020008C8D981305C0E889F989808185FD24C0DD
:10103000F62E0B8D10E00F5F1F4F0F731127E02E60
:101040008C8DE8120CC00FB607FCFACFE889F9893D
:10105000808185FFF5CFCE010E94E507F1CF8B8D12
:10106000FE01E80FF11DE35AFF4FF0820B8FEA8972
:10107000FB898081806207C0EE89FF896083E889EF
:10108000F98980818064808381E090E0DF91CF9155
:101090001F910F91FF90EF900895CF93DF93EC0194
:1010A000888D8823C9F0EA89FB89808185FD05C088
:1010B000A889B9898C9186FD0FC00FB607FCF5CFC2
:1010C000808185FFF2CFA889B9898C9185FFEDCF0A
:1010D000CE010E94E507E7CFDF91CF91089580E030
:1010E00090E0892B29F00E94DB0781110C9400000D
:1010F0000895833081F028F4813099F08230A1F096
:1011000008958730A9F08830B9F08430D1F4809107
:1011100080008F7D03C0809180008F778093800056
:10112000089584B58F7702C084B58F7D84BD0895FE
:101130008091B0008F7703C08091B0008F7D809345
:10114000B00008950895DF92EF92FF920F931F93DE
:10115000CF93DF93F894CEE3D3E002E010E0EE24E7
:10116000E394F12C90E1D92E8A819B81019609F4B8
:101170004AC08C859D85AE85BF85892B8A2B8B2B9C
:10118000F1F088859985AA85BB850197A109B109E8
:1011900088879987AA87BB87892B8A2B8B2B79F421
:1011A000E889F989309709F009951F830E838C85AA
:1011B0009D85AE85BF8588879987AA87BB878CA1C7
:1011C0009DA10197F1F08C8D9D8DAE8DBF8D019706
:1011D000A109B1098C8F9D8FAE8FBF8F892B8A2B70
:1011E0008B2B79F4FDA2ECA28091BD019091BE0100
:1011F00001979093BE018093BD01892B11F4D09289
:101200008100A896B1CF7894DF91CF911F910F9173
:10121000FF90EF90DF9008950E94711F0C94D91EEB
:101220006115710579F0FB0101900020E9F7319714
:10123000AF01461B570BDC01ED91FC910280F3815D
:10124000E02D099480E090E008951F920F920FB670
:101250000F9211242F933F934F935F936F937F933C
:101260008F939F93AF93BF93EF93FF9387E392E0A6
:101270000E94E507FF91EF91BF91AF919F918F91F0
:101280007F916F915F914F913F912F910F900FBE82
:101290000F901F9018951F920F920FB60F92112466
:1012A0002F938F939F93EF93FF93E0914702F091D9
:1012B00048028081E0914D02F0914E0282FD12C001
:1012C0009081809150028F5F8F732091510282171D
:1012D00051F0E0915002F0E0E95CFD4F958F809372
:1012E000500201C08081FF91EF919F918F912F91CA
:1012F0000F900FBE0F901F9018951F93CF93DF9301
:10130000282F30E0F901E452FF4F8491F901E853AE
:10131000FF4FD491F901EC54FF4FC491CC23C9F095
:10132000162F81110E947908EC2FF0E0EE0FFF1FBD
:10133000E655FF4FA591B4918FB7F894111105C0F0
:101340009C91ED2FE095E92302C0EC91ED2BEC93FD
:101350008FBFDF91CF911F910895CF93DF9390E0DE
:10136000FC01E853FF4F2491FC01EC54FF4F8491A2
:10137000882361F190E0880F991FFC01E056FF4F30
:10138000C591D491FC01E655FF4FA591B49161112F
:1013900009C09FB7F8948881209582238883EC91B7
:1013A0002E230BC0623061F49FB7F8943881822FEE
:1013B000809583238883EC912E2B2C939FBF06C0AE
:1013C0008FB7F894E8812E2B28838FBFDF91CF91C0
:1013D00008958E3008F08E5087702091000190E4BF
:1013E000299F90011124822B80937C0080917A00A8
:1013F000806480937A0080917A0086FDFCCF809192
:1014000078002091790090E0922B08953FB7F894EE
:101410008091C9019091CA01A091CB01B091CC01FA
:1014200026B5A89B05C02F3F19F00196A11DB11D3F
:101430003FBFBA2FA92F982F8827820F911DA11D7A
:10144000B11DBC01CD0142E0660F771F881F991FB7
:101450004A95D1F708958F929F92AF92BF92CF9203
:10146000DF92EF92FF926B017C010E94060A4B0112
:101470005C01C114D104E104F104F1F00E94060AF8
:10148000DC01CB0188199909AA09BB09883E934060
:10149000A105B10570F321E0C21AD108E108F108F5
:1014A00088EE880E83E0981EA11CB11CC114D104E3
:1014B000E104F10419F7DDCFFF90EF90DF90CF90BA
:1014C000BF90AF909F908F9008951F920F920FB68C
:1014D0000F9211242F933F938F939F93AF93BF93BA
:1014E0008091290290912A02A0912B02B0912C02A6
:1014F0003091C80123E0230F2D3720F40196A11D60
:10150000B11D05C026E8230F0296A11DB11D209331
:10151000C8018093290290932A02A0932B02B093D2
:101520002C028091C9019091CA01A091CB01B09188
:10153000CC010196A11DB11D8093C9019093CA01F0
:10154000A093CB01B093CC01BF91AF919F918F91AC
:101550003F912F910F900FBE0F901F9018951F92E3
:101560000F920FB60F9211242F933F934F935F93D7
:101570006F937F938F939F93AF93BF93CF93DF939B
:10158000EF93FF932091DF0330E0F901E452FF4F26
:101590008491F901E853FF4FD491F901EC54FF4FC6
:1015A000C491CC23A1F081110E947908EC2FF0E0C6
:1015B000EE0FFF1FEA56FF4FA591B491EC91ED237A
:1015C00031E020E009F430E0832F922F02C080E068
:1015D00090E02091E3033091E4032F5F3F4F30937D
:1015E000E4032093E3032091E203253618F026E07C
:1015F0002093DE032091DE032430D9F128F4223039
:1016000069F02330D9F060C0253009F453C026308A
:1016100009F05AC021E02093AF0453C0009709F0AD
:1016200053C02091E3033091E4032436310508F4DC
:1016300043C01092AF041092E2031DC081309105A7
:1016400009F042C0E091E20321E02E0F2093E20373
:10165000F0E02091E3033091E403EE0FFF1FE2522C
:10166000FC4F308727831092E4031092E30324E0B9
:1016700029C00097B9F4E091E20321E02E0F2093F6
:10168000E203F0E02091E3033091E403EE0FFF1F4B
:10169000E252FC4F308727831092E4031092E30359
:1016A00023E010C02091E3033091E4032536310597
:1016B00058F007C0009741F41092E4031092E3033E
:1016C00003C025E02093DE032091E1032223B9F03B
:1016D000892B51F48091E003882321F08091E0036D
:1016E00061E009C02D9A0BC08091E003882331F09E
:1016F0008091E00360E00E947D0901C02D98FF9178
:10170000EF91DF91CF91BF91AF919F918F917F9199
:101710006F915F914F913F912F910F900FBE0F905E
:101720001F901895CF92DF92EF92FF92CF93DF93A5
:10173000EC01072E000C880B990B0E94C41A6B0158
:101740007C0120E030E040E45FE30E94231B20E0C6
:1017500030E048E452E40E94221D0E94941DC61706
:10176000D707D4F020E030E040EA5FE3C701B601DC
:101770000E94231B20E030E048E452E40E94221D36
:1017800020E030E040E85FE30E94441C0E94941D8A
:1017900021E06C177D070CF420E0822F90E0DF91B0
:1017A000CF91FF90EF90DF90CF9008951F920F920E
:1017B0000FB60F9211242F933F934F935F936F9324
:1017C0007F938F939F93AF93BF93EF93FF93E0919A
:1017D0000101F09102010995FF91EF91BF91AF9145
:1017E0009F918F917F916F915F914F913F912F9139
:1017F0000F900FBE0F901F9018951F920F920FB66B
:101800000F9211242F933F934F935F936F937F9386
:101810008F939F93AF93BF93EF93FF938091C601F4
:101820009091C7018093B2008091C2019091C30151
:10183000A091C401B091C5010196A11DB11D809375
:10184000C2019093C301A093C401B093C5018091DC
:10185000C2019091C301A091C401B091C5018091D2
:10186000C10181111AC081E08093C1018091C20140
:101870009091C301A091C401B091C5018093C201B0
:101880009093C301A093C401B093C501E091BF013F
:10189000F091C00109951092C101FF91EF91BF91A4
:1018A000AF919F918F917F916F915F914F913F91F8
:1018B0002F910F900FBE0F901F9018950895FB0168
:1018C000853A2AE5920709F4C6C0F0F5873C28E37B
:1018D000920709F4B2C0E0F4873E28E1920709F4C8
:1018E00090C08F3C20E3920709F47DC08F3E904169
:1018F00009F0DEC02081318142815381AAE0B0E04D
:101900000E94291CDC01CB010496A11DB11DCCC095
:10191000853B2AE4920709F4ACC08D3A22E5920790
:1019200009F4B5C08D3B924409F0C2C020813181D9
:1019300042815381AAE0B0E00E94291CDC01CB0166
:101940000796A11DB11DB0C0873628E99207C9F1DD
:10195000D0F485382AE7920709F461C08F3620E970
:10196000920711F18739984609F0A2C02081318190
:1019700042815381AAE0B0E00E94291C60837183F8
:101980008283938308958F3420EB920719F18F316E
:1019900020EE920771F08735984A09F089C080815E
:1019A0009181A281B38129C0108211821282138297
:1019B000089580819181A281B3810197A109B10924
:1019C00073C080819181A281B3818C599F4FAF4FA9
:1019D000BF4F6AC080819181A281B38188539F4F9C
:1019E000AF4FBF4F61C02081318142815381AAE056
:1019F000B0E00E94291CDC01CB010196A11DB11DA4
:101A000053C02081318142815381AAE0B0E00E941D
:101A1000291CDC01CB010296A11DB11D45C020810E
:101A2000318142815381AAE0B0E00E94291CDC018F
:101A3000CB010396A11DB11D37C0208131814281A8
:101A40005381AAE0B0E00E94291CDC01CB0105967D
:101A5000A11DB11D29C02081318142815381AAE09D
:101A6000B0E00E94291CDC01CB010696A11DB11D2E
:101A70001BC02081318142815381AAE0B0E00E94E5
:101A8000291CDC01CB010896A11DB11D0DC02081D0
:101A9000318142815381AAE0B0E00E94291CDC011F
:101AA000CB010996A11DB11D80839183A283B383CD
:101AB000089561E08DE00E947D0962E370E080E0BE
:101AC00090E00E942B0A60E08DE00C947D09CF929B
:101AD000DF92EF92FF920E94A400892B09F488C044
:101AE000C0901D02D0901E02E0901F02F0902002D4
:101AF000C0921502D0921602E0921702F0921802DC
:101B000082E08093DE031092E2030E94590D8091DF
:101B1000B6019091B7012DE3C21622ECD2062FEF49
:101B2000E206F10409F44BC02DE1C21622EED20602
:101B30002FEFE206F10409F43FC02DE5C21622EAB8
:101B4000D2062FEFE206F10409F045C024E030E0B0
:101B50003093B9012093B801019749F58091310282
:101B600090913202A0913302B09134028055934C8F
:101B7000A109B109813F9944A240B105C0F020E01C
:101B800030E44CE156E46091200370912103809190
:101B90002203909123030E94231B0E949B1D6093AC
:101BA0003102709332028093330290933402109288
:101BB000B7011092B60116C026E030E0C9CF8130DF
:101BC000910561F2892B99F781E090E09093B7013C
:101BD0008093B60107C0019729F461E372E0C60162
:101BE0000E945F0C81E090E090936D0380936C0302
:101BF000FF90EF90DF90CF900895CF92DF92EF9219
:101C0000FF920E94A400892B09F47CC0C0901D02A1
:101C1000D0901E02E0901F02F0902002C0921502A8
:101C2000D0921602E0921702F092180282E080939E
:101C3000DE031092E2030E94590D8091B60190914B
:101C4000B7012DE3C21622ECD2062FEFE206F10413
:101C500009F43FC02DE1C21622EED2062FEFE206B4
:101C6000F10409F042C025E030E03093B90120933F
:101C7000B801019749F580912D0290912E02A09113
:101C80002F02B0913002885E9340A109B1098932D8
:101C90009342A105B105C0F020E030E44CE156E4E8
:101CA00060911C0370911D0380911E0390911F038E
:101CB0000E94231B0E949B1D60932D0270932E0295
:101CC00080932F02909330021092B7011092B601C8
:101CD00013C08130910579F2892BB1F781E090E052
:101CE0009093B7018093B60107C0019729F46DE284
:101CF00072E0C6010E945F0C81E090E090936D035A
:101D000080936C03FF90EF90DF90CF900895CF9277
:101D1000DF92EF92FF920F931F93CF93DF931F9267
:101D2000CDB7DEB70E94A400892B09F4D0C0C090C3
:101D30001D02D0901E02E0901F02F0902002C0927F
:101D40001502D0921602E0921702F092180282E079
:101D50008093DE031092E2030E94590D8FECC816A7
:101D600080E3D8068FEFE806F10409F4A1C0E4F49B
:101D7000F7EECF16F8E1DF06FFEFEF06F10409F406
:101D80009AC08DEDC81682E2D8068FEFE806F104FE
:101D900009F48EC0EDEFCE16E2E0DE06EFEFEE06C0
:101DA000F10409F08EC087C0FDE5CF16F2EADF0628
:101DB000FFEFEF06F10409F45FC00CF04CC0EDE951
:101DC000CE16E2E6DE06EFEFEE06F10409F079C08A
:101DD00083E090E09093B9018093B80160912D0267
:101DE00070912E0280912F02909130020E94C21AAF
:101DF00027E137EB41ED58E30E94231B60931C035E
:101E000070931D0380931E0390931F036091310212
:101E10007091320280913302909134020E94C21A72
:101E200027E137EB41ED58E30E94231B6093200329
:101E300070932103809322039093230380913502B2
:101E40009091360290931402809313020DE212E0F7
:101E5000E12CF12C1FC0F7E5CF16F8EADF06FFEF03
:101E6000EF06F10441F18FE1C81680EED8068FEF3E
:101E7000E806F104E9F025C085E090E09093B9010F
:101E80008093B8011EC0FFEFEF1AFF0A8AE0E81640
:101E9000F104B9F0F80161918F01C70169830E94D3
:101EA000E11B6981681779F3C7010E94E91BEBCF39
:101EB00081E090E002C082E090E09093360280934F
:101EC000350281E090E090936D0380936C030F9056
:101ED000DF91CF911F910F91FF90EF90DF90CF9006
:101EE00008950F931F93809111010E94E909209199
:101EF000130130911401821B930B20910D0130913D
:101F00000E018217930754F10E94060A60930F0294
:101F100070931002809311029093120200910B02B1
:101F200010910C0220910D0230910E02DC01CB01C8
:101F3000801B910BA20BB30B8093B2019093B30162
:101F4000A093B401B093B5011092B9011092B801F9
:101F500081E090E090936D0380936C031F910F914B
:101F600008950F931F93809117010E94E909209112
:101F7000190130911A01821B930B20910D013091B0
:101F80000E018217930754F10E94060A60930F0214
:101F900070931002809311029093120200910B0231
:101FA00010910C0220910D0230910E02DC01CB0148
:101FB000801B910BA20BB30B8093B2019093B301E2
:101FC000A093B401B093B5011092B9011092B80179
:101FD00081E090E090936D0380936C031F910F91CB
:101FE0000895CF93DF93809111010E94E909C09178
:101FF0000D01D0910E012091130130911401821B2B
:10200000930BC817D907ACF40E94060A60930F021D
:1020100070931002809311029093120260930B024E
:1020200070930C0280930D0290930E0281E090E079
:1020300021C0809117010E94E90920911901309176
:102040001A01821B930BC817D907C4F40E94060A11
:1020500060930F027093100280931102909312020A
:1020600060930B0270930C0280930D0290930E020A
:1020700082E090E09093B9018093B801DF91CF9115
:1020800008958F929F92AF92BF92CF92DF92EF927C
:10209000FF92CF93DF93E0900902F0900A028BE069
:1020A000E816F104F4F4809111010E94E909F701A6
:1020B000EE0FFF1FE352FE4F918380838091170143
:1020C0000E94E909F701EE0FFF1FED50FE4F9183CB
:1020D00080838FEFE81AF80AF0920A02E092090270
:1020E000C3C01092B9011092B80110920A02109266
:1020F0000902E12CF12CEFEDF1E060E070E081915C
:102100009191680F791F84899589E80EF91E81E005
:10211000E33FF807A1F7072E000C880B990B0E94EC
:10212000C41A2DEC3CEC4CEC5DE30E94231B0E9496
:10213000941D4B015C017093140160931301B7016E
:10214000FF0C880B990B0E94C41A2DEC3CEC4CEC54
:102150005DE30E94231B0E94941D6B017C01709320
:102160001A01609319010E94231760912D0270914A
:102170002E0280912F02909130020E94C21A27E114
:1021800037EB41ED58E30E94231B60931C037093CF
:102190001D0380931E0390931F0360913102709181
:1021A000320280913302909134020E94C21A27E1D8
:1021B00037EB41ED58E30E94231B6093200370939B
:1021C0002103809322039093230380913502909101
:1021D000360290931402809313028091D5018111ED
:1021E0000BC0C814D9040CF46401D092D401C0927D
:1021F000D30181E08093D5018091D3019091D401E6
:10220000863991054CF481E090E090931C01809315
:102210001B018CE390E024C09C0126593109223334
:10222000310548F483E090E090931C0180931B01FA
:1022300088E290E015C0885C9109C29748F485E077
:1022400090E090931C0180931B0184E190E008C012
:1022500087E090E090931C0180931B018FE090E059
:1022600090930E0180930D010E94A400892B09F424
:1022700074C080911D0290911E02A0911F02B09126
:1022800020028093150290931602A0931702B09338
:10229000180282E08093DE031092E20384E090E073
:1022A0009093B9018093B80164E971E087E392E00B
:1022B0000E94100960911D0270911E0280911F0200
:1022C0009091200240E10E94851666E771E087E365
:1022D00092E00E9410090E94231760912D027091D4
:1022E0002E0280912F02909130020E94C21A27E1A3
:1022F00037EB41ED58E30E94231B60931C0370935E
:102300001D0380931E0390931F036091310270910F
:10231000320280913302909134020E94C21A27E166
:1023200037EB41ED58E30E94231B60932003709329
:10233000210380932203909323038091350290918F
:102340003602909314028093130285E08093B704C1
:102350008DE80E943C150E94590D81E090E0909319
:102360006D0380936C03DF91CF91FF90EF90DF902E
:10237000CF90BF90AF909F908F9008954F925F92B3
:102380006F927F928F929F92AF92BF92CF92DF9285
:10239000EF92FF920F931F93CF93DF93CDB7DEB7EA
:1023A0002A970FB6F894DEBF0FBECDBF8C01FC019B
:1023B000808191810097C1F1823E910509F0F9C1B8
:1023C00080916C0390916D03892B09F4F8C12091E1
:1023D000B8013091B9012115310509F04CC1C09007
:1023E000B201D090B301E090B401F090B501C114F6
:1023F000D104E104F104F1F48091130190911401EE
:102400000E94C8168091190190911A010E94C81665
:1024100080911B018093B704877088680E943C15E7
:1024200010926D0310926C0382EE90E0F80191839C
:102430008083C6CF80911302909114028130910560
:1024400081F4C701B6010E94C21A2AE037ED43E2C7
:102450005CE30E94231B0E949B1D0E940F1681E3D8
:1024600052C0029709F051C0809020039090210340
:10247000A0902203B090230320E030E040E05FE32F
:1024800060911C0370911D0380911E0390911F03A6
:102490000E94231BA50194010E94C31C9B01AC0157
:1024A0000E94441C20E030E044E353E40E94231BDC
:1024B00023E839EF42EA5EE30E94231B4B015C01F3
:1024C000C701B6010E94C21A2DEB37E346E855E377
:1024D0000E94231B9B01AC01C501B4010E94221D77
:1024E000609324037093250380932603909327031E
:1024F00020E030E44CE156E40E94231B0E949B1D27
:102500000E940F168DE680932A038AE293E00E94D0
:10251000E9156091B2017091B3018091B40190917D
:10252000B5010E94C21A2DEB37E346E855E30E943D
:10253000231B6B017C012B013C019B01AC010E9420
:10254000021E882319F065EA71E01AC0460157019E
:10255000E894B7F82FEF3FEF4FE75FE7C501B4010D
:102560000E94021E811111C02FEF3FEF4FE75FE77E
:10257000C501B4010E94BD1A18163CF469EA71E065
:1025800087E392E00E9410096FC02FEF3FEF4FE703
:102590005FE4C701B6010E94F11D18161CF46DEA34
:1025A00071E0EECF2FEF3FEF4FE75FECC701B601D1
:1025B0000E94BD1A87FDF3CF20E030E0A901C701DA
:1025C000B6010E94BD1A87FF09C08DE20E947A16EB
:1025D0002601370177FA709477F870942CEB37E383
:1025E00046E055E3C301B2010E94441C6B017C012B
:1025F0000E949B1D2B013C010E94C21A9B01AC0151
:10260000C701B6010E94431C6B017C014AE0C30173
:10261000B2010E9485168EE20E947A1697E0B92ECA
:10262000BA94BB2009F120E030E040E251E4C70158
:10263000B6010E94231B2B013C010E949B1D6B01D4
:10264000E12CF12C4AE0C701B6010E948516C701B2
:10265000B6010E94C21A9B01AC01C301B2010E94E3
:10266000431C6B017C01DCCF66E771E087E392E0FD
:102670000E941009D5CE23303105B1F5E090D1018B
:10268000F090D201F9E0EF16F10414F588EBC82EB2
:1026900084E0D82EF701E65CFE4FB080F601B192DF
:1026A0006F0180E40E943C150E9454158091B7048C
:1026B000877088680E943C15F2ECCF16F4E0DF06C4
:1026C00069F76CE271E080E090E00E942B0A04C0A0
:1026D00083E091E00E94E9158FEFE81AF80AF09282
:1026E000D201E092D1019CCE24303105C1F4609139
:1026F0002D0270912E0280912F02909130020E9443
:102700000F168091B6019091B701019731F48DE6D3
:1027100080932B0381E380932C038EE51AC0253030
:102720003105D1F46091310270913202809133020F
:10273000909134020E940F168091B6019091B701DA
:10274000019731F48DE680932B0381E380932C0372
:1027500088E380932A0328C02630310509F060CE33
:102760008AE0E3E2F1E0DE01119601900D928A9594
:10277000E1F7FE013196AAE2B3E0CE010B9621917A
:102780002D93E817F907D9F7809135029091360219
:102790008130910521F48CE580932D0305C00297CB
:1027A00019F48CE5809331038AE293E00E94E915E5
:1027B00037CEF8011182108283E090E002C080E001
:1027C00090E02A960FB6F894DEBF0FBECDBFDF9122
:1027D000CF911F910F91FF90EF90DF90CF90BF901E
:1027E000AF909F908F907F906F905F904F900895E3
:1027F0008091BB019091BC01892B59F4109281000A
:1028000010928500109284008091BA0180618093BB
:1028100081008091BB019091BC0101969093BC0115
:102820008093BB010895CF93DF93EC018881998158
:102830008F3421E0920709F476C020F4892B09F443
:102840006EC08BC08A3521E0920789F18D359140A9
:1028500009F45BC082C08330910509F076C061E065
:102860008DE00E947D098091B2039091B30301979E
:10287000D1F41092B3031092B20384E190E0A0E08F
:10288000B0E08093AE039093AF03A093B003B093F6
:10289000B1038093AA039093AB03A093AC03B093CE
:1028A000AD030E94F8138AE591E0998388838091B3
:1028B000B2039091B303892BE1F160E08DE00E94B7
:1028C0007D098091B2039091B3030197D1F41092E6
:1028D000B3031092B20384E190E0A0E0B0E08093F3
:1028E000AE039093AF03A093B003B093B103809372
:1028F000AA039093AB03A093AC03B093AD030E94E3
:10290000F8138DE591E0998388838091B2039091CB
:10291000B303892B71F010929503109294038FE406
:1029200091E0998388838091940390919503892BFA
:1029300019F480E090E015C08091B8019091B90140
:10294000009709F088CF60E004C00197029718F75C
:1029500061E08DE00E947D09DECF1982188283E05C
:1029600090E0DF91CF910895CF93DF93EC018881C0
:1029700099818F3B910559F0883C910509F44BC032
:10298000892B09F055C08FEB90E099838883809163
:10299000440390914503892B19F480E090E04CC0EA
:1029A0002091B8013091B901C9010197220F331F5D
:1029B000F901E35DFE4F0190F081E02D029790F563
:1029C00009958091B8019091B901892B61F58091A9
:1029D0006203909163030197D1F410926303109204
:1029E000620388EE93E0A0E0B0E080935E039093F2
:1029F0005F03A0936003B093610380935A039093A5
:102A00005B03A0935C03B0935D030E94F81388EC12
:102A100090E0998388838091620390916303892B6E
:102A200011F4BBCF09951092450310924403ABCF2C
:102A30001982188283E090E0DF91CF910895CF93BF
:102A4000DF93D82FC8E0D0FF02C061E001C060E092
:102A50008091B1040E947D0960E08091B3040E94DE
:102A60007D0961E08091B3040E947D09D695C15033
:102A700051F7DF91CF9108951F93CF93DF93182FD4
:102A8000C1EBD4E061E08C810E947D0960E08C8123
:102A90000E947D09812F0E941F1561E08C81DF91CA
:102AA000CF911F910C947D09FF920F931F93CF93A9
:102AB000DF93CDB7DEB760970FB6F894DEBF0FBED9
:102AC000CDBF8E010F5F1F4F80E1F80111928A95F3
:102AD000E9F720E030E0F901EF54FB4F678170E047
:102AE000F80140E050E0CB01042E02C09595879597
:102AF0000A94E2F781709927022E01C0880F0A9488
:102B0000EAF79081892B80834F5F5F4F3296483080
:102B1000510549F72F5F3F4F28303105E1F64091CD
:102B2000C00450E0FE013296DF0120E030E0CA012F
:102B3000022E02C0959587950A94E2F78170992735
:102B40009C91892B8C932F5F3F4F12962830310533
:102B500071F74091C10450E020E030E0CA01022E3C
:102B600002C0959587950A94E2F781709927880F9E
:102B7000991F9081892B80832F5F3F4F3296283099
:102B8000310561F761E08091B5040E947D0960E044
:102B90008091B5040E947D0980E00E941F1580E1AC
:102BA000F82EF00EF80181918F010E941F15F0128E
:102BB000F9CF61E08091B50460960FB6F894DEBF5E
:102BC0000FBECDBFDF91CF911F910F91FF900C945D
:102BD0007D09EF92FF920F931F93CF93DF93EC0148
:102BE00008EB14E07C018AE0E80EF11C8991F80101
:102BF00081938F0180E40E943C150E9454158091BE
:102C0000B704877088680E943C15CE15DF0571F700
:102C1000DF91CF911F910F91FF90EF9008958F92C8
:102C20009F92AF92BF92CF92DF92EF92FF920F935B
:102C30001F93CF93DF936B017C01EAE2F3E01192E3
:102C400083E0E433F807D9F71092290310922803A0
:102C5000C4E3D3E080E090E02AE0822E912CA12C06
:102C6000B12C8C010F5F1F4FC114D104E104F1049A
:102C7000D9F0C701B601A50194010E94071CFB0110
:102C8000E85DFC4F84858A93C701B6010E94C21A91
:102C90002DEC3CEC4CEC5DE30E94231B0E949B1D41
:102CA0006B017C01C801DDCF909329038093280339
:102CB00020913403E3E3F3E0E81BF90B8530910541
:102CC0003CF48130910509F0208301963197F6CFCD
:102CD00080912F03805880932F03DF91CF911F9114
:102CE0000F91FF90EF90DF90CF90BF90AF909F90AB
:102CF0008F900895E0913702F09138020190F081B1
:102D0000E02D682F87E392E009948F929F92AF9213
:102D1000BF920F931F93CF93DF93CDB7DEB7A197E9
:102D20000FB6F894DEBF0FBECDBF19A2423008F433
:102D30004AE08E010F5D1F4F842E912CA12CB12CE7
:102D4000A50194010E94071CE62FB901CA01015098
:102D50001109EA3014F4E05D01C0E95CD801EC939C
:102D6000232B242B252B61F7B80187E392E00E94E7
:102D70001009A1960FB6F894DEBF0FBECDBFDF914C
:102D8000CF911F910F91BF90AF909F908F9008951A
:102D9000CF92DF92EF92FF92CF93DF936C01990F66
:102DA000EE08FF08F7FE12C08DE20E947A16EC01D1
:102DB00066277727CB016C197D098E099F094AE0A8
:102DC0000E9485167C01EC0EFD1E06C04AE0C7017C
:102DD000B6010E9485167C0166E771E087E392E008
:102DE0000E9410098E0D9F1DDF91CF91FF90EF90F3
:102DF000DF90CF900895E7E3F2E0A089B18982E007
:102E00008C93A485B5851C92A685B78580E18C93AB
:102E1000108EA489B58986E08C93A289B3898C91A0
:102E200080618C93A289B3898C9188608C93A289EC
:102E3000B3898C9180688C930288F389E02D80811E
:102E40008F7D808308950F931F93CF93DF930DE2BF
:102E500012E0C0E0D0E0CE010E94E11BF8018193B6
:102E60008F012196CA30D105B1F78DE292E0DF9152
:102E7000CF911F910F910895CF92DF92EF92FF9221
:102E80000F931F932FB7F894C0902902D0902A0275
:102E9000E0902B02F0902C022FBFDC01CB018C0DB7
:102EA0009D1DAE1DBF1D4FB7F894009129021091D2
:102EB0002A0220912B0230912C024FBF0C151D05C8
:102EC0002E053F0528F080179107A207B30758F792
:102ED0001F910F91FF90EF90DF90CF9008958F9208
:102EE0009F92AF92BF92CF92DF92EF92FF920F9399
:102EF0001F93CF93DF93FC01C081D18120912502E4
:102F000030912602C217D3070CF04BC09E01220F4E
:102F1000331FE0912302F0912402E20FF31F80801F
:102F20009180C170DD27F1E0CF27209719F404E6E6
:102F300010E002C00CE91FEF7A015B016C01040F85
:102F4000151FB801C4010E94920B892B99F40E0D34
:102F50001F1DB801C4010E94920B892B71F4B801A6
:102F60006E0D7F1DC4010E94920B892BE9F023E0B6
:102F700030E005C021E030E002C022E030E0F501A1
:102F8000808191810196821793073CF0F5011182AF
:102F90001082F60180819181019691838083CE0118
:102FA00005C081E090E002C08FEF9FEFDF91CF91ED
:102FB0001F910F91FF90EF90DF90CF90BF90AF9057
:102FC0009F908F900895789484B5826084BD84B575
:102FD000816084BD85B5826085BD85B5816085BD14
:102FE00080916E00816080936E00109281008091CC
:102FF0008100826080938100809181008160809354
:103000008100809180008160809380008091B10078
:1030100084608093B1008091B00081608093B000A3
:1030200080917A00846080937A0080917A00826037
:1030300080937A0080917A00816080937A008091F9
:103040007A00806880937A001092C1001092180371
:103050001092190310921A0310921B031092D602B9
:103060001092D7021092D8021092D90268EB7BE03E
:1030700080E090E00E943C1787E392E09093170372
:10308000809316030E94FB162FB7F89480912902B3
:1030900090912A02A0912B02B0912C022FBF809315
:1030A000D6029093D702A093D802B093D90267E6D4
:1030B00071E080911603909117030E9410096AE055
:1030C00070E080E090E00E943C1783E08093000174
:1030D00061E08DE00E94AD0980917A008B7F809342
:1030E0007A0080917A00826080937A0080917A00E1
:1030F000816080937A000E94FB1683E090E09093B9
:10310000B9018093B8011092B7011092B6011092E4
:10311000B2011092B3011092B4011092B501109255
:103120004103109240031092450310924403109201
:103130004A0310924B0310924C0310924D031092CD
:1031400046031092470310924803109249031092CD
:1031500043031092420310924F0310924E0384EBEC
:1031600094E1909365038093640381E090E09093F1
:1031700069038093680310926D0310926C031092A0
:1031800072031092730310927403109275031092DD
:103190006E0310926F0310927003109271031092DD
:1031A0006B0310926A0310927703109276038EEBF2
:1031B00091E190938D0380938C0382E090E0909353
:1031C00091038093900310929503109294031092B0
:1031D0009A0310929B0310929C0310929D031092ED
:1031E00096031092970310929803109299031092ED
:1031F00093031092920310929F0310929E0383E117
:1032000094E19093B5038093B4031092BC011092A3
:10321000BB0180E1809381001092800081E0809367
:10322000BA0120E43FE13093CE012093CD013093E9
:1032300087002093860091E19093810023EA38E093
:10324000309302012093010180936F000E94F813D4
:1032500069E771E087E392E00E94100966E771E098
:1032600087E392E00E941009F89482E08093B00016
:103270008093B10094E69093B3001092B2008093D3
:10328000700078948093DE031092E2038091DF0354
:1032900060E00E94AD0967E871E087E392E00E9478
:1032A000100966E771E087E392E00E941009C1E02F
:1032B000D0E018E2D0934503C0934403D093950324
:1032C000C09394031092D0011092CF012091CF01AE
:1032D0003091D001129FC001139F900D1124FC0169
:1032E000E25CFC4F228133812F3F3F4F81F006A0EB
:1032F000F7A1E02D8E5B9C4F09958091CF019091B5
:10330000D00101969093D0018093CF01DFCF0E942E
:103310006F08D0CFCF93DF93CEEDD3E0A897E881AD
:10332000F9810190F081E02DCE01099583E0CE3343
:10333000D807A1F7DF91CF9108951F93CF93DF9323
:10334000CDB7DEB72A970FB6F894DEBF0FBECDBF5C
:1033500010923A021092390288EE93E0A0E0B0E0B9
:1033600080933B0290933C02A0933D02B0933E02B7
:1033700081E591E0909338028093370285EC90E0EC
:10338000909344028093430284EC90E09093460231
:103390008093450280EC90E090934802809347022E
:1033A00081EC90E090934A028093490282EC90E095
:1033B00090934C0280934B0286EC90E090934E02E7
:1033C00080934D02109250021092510210925202BC
:1033D000109253021092DA021092DB021092DC0279
:1033E0001092DD021092DE021092DF021092E002D3
:1033F0001092E1021092E2021092E3021092E402B3
:103400001092E5021092E6021092E7021092E80292
:103410001092E902EEE3F3E0AEE4B3E043E651E0FC
:103420002FEF3FEF81E090E051834083338322838D
:103430001782168257961C921E92569711961C92CE
:103440001E9210861186128613861486158616869D
:103450001786128A138A148A158A168A178A108E7A
:10346000118E938F828F148E158E168E178E509616
:103470001D921D921D921C92539755969C938E936C
:103480005497B896989663E0EE3DF60769F6109269
:103490002903109228038AE0E3E4F1E0DE011196AB
:1034A00001900D928A95E1F7FE013196A4E3B3E015
:1034B000CE010B9621912D93E817F907D9F71092B9
:1034C0001C0310921D0310921E0310921F031092F2
:1034D00020031092210310922203109223031092D2
:1034E00024031092250310922603109227031091B3
:1034F0001B0161E08CE00E94AD0961E08BE00E945D
:10350000AD0961E08AE00E94AD098CE090E0909303
:10351000B6048093B5048BE090E09093B40480935C
:10352000B3048AE090E09093B2048093B10461E028
:103530008CE00E947D0961E08091B3040E947D09C6
:1035400061E08091B1040E947D09E8EBF4E08AE03B
:103550008E0F11928E13FDCF1093B70485E08093E8
:10356000DF031092E1032A960FB6F894DEBF0FBE78
:10357000CDBFDF91CF911F9108950E94FF1A08F4EB
:1035800081E00895E89409C097FB3EF490958095FA
:10359000709561957F4F8F4F9F4F9923A9F0F92F19
:1035A00096E9BB279395F695879577956795B79597
:1035B000F111F8CFFAF4BB0F11F460FF1BC06F5F7D
:1035C0007F4F8F4F9F4F16C0882311F096E911C08F
:1035D000772321F09EE8872F762F05C0662371F0B0
:1035E00096E8862F70E060E02AF09A95660F771FC4
:1035F000881FDAF7880F9695879597F90895990FA0
:103600000008550FAA0BE0E8FEEF16161706E807AC
:10361000F907C0F012161306E407F50798F0621BCD
:10362000730B840B950B39F40A2661F0232B242BA2
:10363000252B21F408950A2609F4A140A6958FEFC1
:10364000811D811D08950E94361B0C94A71B0E94AA
:10365000991B38F00E94A01B20F0952311F00C94C8
:10366000901B0C94961B11240C94DB1B0E94B81B1E
:1036700070F3959FC1F3950F50E0551F629FF001C5
:10368000729FBB27F00DB11D639FAA27F00DB11DDE
:10369000AA1F649F6627B00DA11D661F829F222767
:1036A000B00DA11D621F739FB00DA11D621F839FEE
:1036B000A00D611D221F749F3327A00D611D231FC4
:1036C000849F600D211D822F762F6A2F11249F5712
:1036D00050409AF0F1F088234AF0EE0FFF1FBB1F15
:1036E000661F771F881F91505040A9F79E3F5105D4
:1036F00080F00C94901B0C94DB1B5F3FE4F3983E2E
:10370000D4F3869577956795B795F795E7959F5F7D
:10371000C1F7FE2B880F911D9695879597F908950F
:1037200097F99F6780E870E060E008959FEF80EC74
:10373000089500240A941616170618060906089517
:1037400000240A9412161306140605060895092E7D
:103750000394000C11F4882352F0BB0F40F4BF2BEC
:1037600011F460FF04C06F5F7F4F8F4F9F4F08952C
:1037700057FD9058440F551F59F05F3F71F0479522
:10378000880F97FB991F61F09F3F79F08795089507
:10379000121613061406551FF2CF4695F1DF08C026
:1037A000161617061806991FF1CF86957105610543
:1037B00008940895E894BB2766277727CB0197F9EB
:1037C0000895F999FECF92BD81BDF89A992780B5E9
:1037D0000895262FF999FECF1FBA92BD81BD20BD55
:1037E0000FB6F894FA9AF99A0FBE01960895DB0184
:1037F0008F939F930E94291CBF91AF91A29F800D30
:10380000911DA39F900DB29F900D11240895A1E2E8
:103810001A2EAA1BBB1BFD010DC0AA1FBB1FEE1F4A
:10382000FF1FA217B307E407F50720F0A21BB30B95
:10383000E40BF50B661F771F881F991F1A9469F711
:1038400060957095809590959B01AC01BD01CF016D
:1038500008950E94341CA59F900DB49F900DA49FC5
:10386000800D911D11240895A29FB001B39FC00146
:10387000A39F700D811D1124911DB29F700D811D9C
:103880001124911D08955058BB27AA270E945B1C44
:103890000C94A71B0E94991B38F00E94A01B20F0DB
:1038A00039F49F3F19F426F40C94961B0EF4E0951E
:1038B000E7FB0C94901BE92F0E94B81B58F3BA1732
:1038C000620773078407950720F079F4A6F50C9436
:1038D000DA1B0EF4E0950B2EBA2FA02D0B01B901C7
:1038E00090010C01CA01A0011124FF27591B99F076
:1038F000593F50F4503E68F11A16F040A22F232F82
:10390000342F4427585FF3CF469537952795A795D1
:10391000F0405395C9F77EF41F16BA0B620B730B78
:10392000840BBAF09150A1F0FF0FBB1F661F771FE9
:10393000881FC2F70EC0BA0F621F731F841F48F49E
:10394000879577956795B795F7959E3F08F0B0CF27
:103950009395880F08F09927EE0F9795879508950E
:103960000E94991B60F080E891E009F49EEF0E94AC
:10397000A01B28F040E851E071F45EEF0CC00C94FD
:10398000961B0C94DA1BE92FE0780E94B81B40F3D9
:10399000092E052AB1F3261737074807590738F0CB
:1039A0000E2E07F8E02569F0E025E0640AC0EF6319
:1039B00007F8009407FADB01B9019D01DC01CA0197
:1039C000AD01EF930E94391D0E94A71B0E94F31CBA
:1039D0005F91552339F02BED3FE049E450FD49EC70
:1039E0000C94441C0895DF93DD27B92FBF7740E87E
:1039F0005FE31616170648075B0718F4D92F0E94D5
:103A0000F61D9F938F937F936F930E94FE1DE8E6B0
:103A1000F0E00E94CA1D0E94A71B2F913F914F9179
:103A20005F910E94361BDD2351F09058A2EA2AEDE7
:103A30003FE049EC5FE3D0785D270E945B1CDF919B
:103A40000C94A71B0E94361D0C94A71B0E94A01B60
:103A500058F00E94991B40F029F45F3F29F00C9424
:103A6000901B51110C94DB1B0C94961B0E94B81BED
:103A700068F39923B1F3552391F3951B550BBB279D
:103A8000AA2762177307840738F09F5F5F4F220FE2
:103A9000331F441FAA1FA9F335D00E2E3AF0E0E8D9
:103AA00032D091505040E695001CCAF72BD0FE2F23
:103AB00029D0660F771F881FBB1F261737074807B7
:103AC000AB07B0E809F0BB0B802DBF01FF2793586F
:103AD0005F4F3AF09E3F510578F00C94901B0C9488
:103AE000DB1B5F3FE4F3983ED4F3869577956795AB
:103AF000B795F7959F5FC9F7880F911D96958795A4
:103B000097F90895E1E0660F771F881FBB1F6217C2
:103B100073078407BA0720F0621B730B840BBA0B80
:103B2000EE1F88F7E09508950E949B1D6894B111DF
:103B30000C94DB1B08950E94C01B88F09F5798F0DF
:103B4000B92F9927B751B0F0E1F0660F771F881FA2
:103B5000991F1AF0BA95C9F714C0B13091F00E94BC
:103B6000DA1BB1E008950C94DA1B672F782F8827B1
:103B7000B85F39F0B93FCCF3869577956795B395E3
:103B8000D9F73EF490958095709561957F4F8F4F52
:103B90009F4F0895DF93CF931F930F93FF92EF9260
:103BA000DF927B018C01689406C0DA2EEF010E943F
:103BB000361BFE01E894A5912591359145915591CB
:103BC000A6F3EF010E945B1CFE019701A801DA94A5
:103BD00069F7DF90EF90FF900F911F91CF91DF91E8
:103BE00008950E94FF1A08F48FEF08959B01AC011D
:103BF00060E070E080E89FE30C94221D9B01AC0123
:103C00000C94231B0E94FF1A880B990B08950F93A5
:103C1000083090F0982F872F762F652F542F432F41
:103C2000322F22270850F4CF220F331F441F551F75
:103C3000661F771F881F991F0A95B2F70F91089585
:103C400097FB10F8169400080F93083098F008506E
:103C5000232F342F452F562F672F782F892F902D04
:103C6000F4CF0594979587957795679557954795E0
:103C7000379527950A95AAF70F910895EE0FFF1F24
:103C80000590F491E02D0994CF93DF938230910554
:103C900010F482E090E0E091C404F091C50420E0CB
:103CA00030E0C0E0D0E0309711F1408151814817F9
:103CB0005907C0F04817590761F482819381209712
:103CC00019F09B838A832BC09093C5048093C4040E
:103CD00026C02115310519F04217530718F49A012F
:103CE000BE01DF01EF010280F381E02DDCCF211561
:103CF000310509F1281B390B2430310590F4129657
:103D00008D919C9113976115710521F0FB019383AF
:103D1000828304C09093C5048093C404FD0132964D
:103D200044C0FD01E20FF31F8193919322503109AA
:103D30002D933C933AC02091C2043091C304232BAD
:103D400041F420911F01309120013093C30420934E
:103D5000C20420911D0130911E012115310541F44D
:103D60002DB73EB74091210150912201241B350B04
:103D7000E091C204F091C304E217F307A0F42E1BF4
:103D80003F0B2817390778F0AC014E5F5F4F2417BF
:103D9000350748F04E0F5F1F5093C3044093C20491
:103DA0008193919302C0E0E0F0E0CF01DF91CF91E9
:103DB00008950F931F93CF93DF93009709F48CC05E
:103DC000FC013297138212820091C4041091C50441
:103DD0000115110581F420813181820F931F2091FB
:103DE000C2043091C3042817390779F5F093C3044E
:103DF000E093C20471C0D80140E050E0AE17BF07A5
:103E000050F412962D913C911397AD012115310577
:103E100009F1D901F3CF9D01DA0133832283608157
:103E20007181860F971F8217930769F4EC0128812F
:103E30003981260F371F2E5F3F4F318320838A81C0
:103E40009B8193838283452B29F4F093C504E093EF
:103E5000C40442C01396FC93EE931297ED0149916E
:103E600059919E01240F351FE217F30771F48081E9
:103E70009181840F951F029611969C938E93828157
:103E8000938113969C938E931297E0E0F0E0D80113
:103E900012968D919C911397009719F0F8018C015F
:103EA000F6CF8D919C9198012E5F3F4F820F931F0B
:103EB0002091C2043091C3042817390769F4309760
:103EC00029F41092C5041092C40402C01382128215
:103ED0001093C3040093C204DF91CF911F910F91FF
:103EE000089581E090E0F8940C94761F10E0C9E703
:103EF000D0E004C0FE010E943E1E2196CA37D107C1
:063F0000C9F7F894FFCFA1
:103F060001A20876793838BF885B3F86884600006C
:103F1600000F00000001000E00000001000000C6B6
:103F26000480006D31000086310000DB6DF10FB1B9
:103F36000F710F4110FD0D670D870E200102040859
:103F46001040803F065B4F666D7D077F6F00000067
:103F56000006086F079E074D08CF07AD07C107008B
:103F66000000005E0C0E09564D4450565F317C3001
:103F76005F564D4450560D0A00456E61626C696E7F
:103F860067204952696E00456E61626C656420491E
:103F960052696E0053686F7720436F6E66696720BB
:103FA6004B65793A006E616E00696E66006F7666E3
:023FB600000009
:00000001FF
